:100000000C9463000C948B000C948B000C948B006C
:100010000C948B000C948B000C948B000C948B0034
:100020000C948B000C948B000C948B000C948B0024
:100030000C948B000C948B000C948B000C948B0014
:100040000C94B7040C948B000C94ED050C943006C2
:100050000C948B000C948B000C948B000C948B00F4
:100060000C948B000C948B00000000070002010030
:100070000003040600000000000000000102040864
:100080001020408001020408102001020408102002
:10009000040404040404040402020202020203032E
:1000A00003030303000000002300260029000000D2
:1000B0000000250028002B0000000000240027007D
:1000C0002A00BD00EC0611241FBECFEFD8E0DEBF32
:1000D000CDBF11E0A0E0B1E0E2E8FFE002C0059092
:1000E0000D92AE32B107D9F712E0AEE2B1E001C035
:1000F0001D92A035B107E1F710E0C6ECD0E004C0D6
:100100002297FE010E94BB07C23CD107C9F70E949B
:1001100048050C94BF070C94000061E08DE00E943C
:100120001F0461E08DE00E94580440E855E260E061
:1001300070E086EA91E00C946B06CF938EE291E03A
:100140000E94CF03C82F8823B1F0833221F08A3276
:1001500039F460E001C061E08DE0CF910C94580467
:10016000682F86EA91E00E9485076C2F86EA91E06D
:10017000CF910C948507CF910895EF920F9383E070
:10018000E82E04E020E031E043E051E067E071E078
:100190008EE291E00E94DA000F91EF900895862F91
:1001A000642F0C941F04862F642F0C945804862F00
:1001B0000C948E044F925F926F927F928F929F92D7
:1001C000AF92BF92CF92DF92EF920F93CF93DF93D4
:1001D000EC014B013A01590102960E94F00387E1BC
:1001E00091E0998388836E018CE1C80ED11C2601B1
:1001F0008CE3480E511CC6010E94F00386E0C80E35
:10020000D11CC414D504B9F7FE01EE59FF4F718219
:100210006082FE01EC59FF4FB182A082FE01EA59D3
:10022000FF4F0083FE01E959FF4FE082FE01E05AD3
:10023000FF4F91828082FE01E859FF4F8AE090E0F3
:1002400091838083FE01E659FF4F84EF91E0918313
:100250008083FE01E359FF4F11821082FE01E45AB0
:10026000FF4F1082118212821382C459DF4F18820D
:10027000DF91CF910F91EF90DF90CF90BF90AF9033
:100280009F908F907F906F905F904F9008952F92E6
:100290003F924F925F926F927F928F929F92AF9216
:1002A000BF92CF92DF92EF92FF920F931F93CF9363
:1002B000DF93CDB7DEB728970FB6F894DEBF0FBE39
:1002C000CDBF98878F83F12C4C0186E6880E911C58
:1002D0000F8118850E591F4FD4018C91F816A0F488
:1002E000AF81B8858D919C91F801A081B181AF0D4E
:1002F000B11DFC012081318142E06C918F81988594
:10030000F9010995F394E8CF512CEF81F885E9596B
:10031000FF4FFA83E9830F8118850C591F4FC12CB9
:10032000D12C7601C3948F8198858E599F4F9C83E1
:100330008B83A981BA818C91581608F088C0A52CAE
:10034000B12CAF81B8858D919C91F801A081B181CC
:10035000AA0DBB1DFC012081318141E06C918F8190
:100360009885F9010995AF81B8858D919C91F80127
:10037000A081B181AA0DBB1DFC012281338140E027
:100380006C918F819885F9010995D701C601052CDB
:1003900004C0880F991FAA1FBB1F0A94D2F79C01A3
:1003A0001C0120943094412CD4018C91EF81F8856C
:1003B00040815181481648F5642C712CEB81FC81F9
:1003C000A081B181A60DB71DFA01448155816C91C0
:1003D0008F8198852D833E83FA010995660C771CE1
:1003E0002D813E81EF81F885E60DF71D892B29F4DB
:1003F00080859185822B932B04C0808591858221F5
:100400009321918780874394CFCFF801A081B18158
:10041000AA0DBB1DFA012281338141E06C918F81CD
:100420009885F9010995AF81B8858D919C91F80166
:10043000A081B181AA0DBB1DFC012081318140E06A
:100440006C918F819885F9010995539472CF289604
:100450000FB6F894DEBF0FBECDBFDF91CF911F91D5
:100460000F91FF90EF90DF90CF90BF90AF909F9053
:100470008F907F906F905F904F903F902F90089556
:10048000FC0180E090E0258D368D2617370739F086
:10049000019636968A309105B1F78FEF9FEF089558
:1004A000DC0126E0629FA00DB11D112490965C93A3
:1004B0004E935F9721E091962C939197FC01E4591C
:1004C000FF4F2081FC01E359FF4F0190F081E02DA7
:1004D000222331F0309749F0611107C0DC0102C0DE
:1004E000309719F05C968C9109940895CF92DF9221
:1004F000FF920F931F93CF93DF931F92CDB7DEB779
:100500006C01F62EFC0186E0689FE00DF11D1124C0
:1005100011A2878D90A181309105F1F01CF4892BF7
:1005200051F048C082309105A9F1039709F042C00B
:1005300040E050E033C04130E9F541E050E0C60111
:100540000E9450020E940105F601E85AFF4F6083A5
:100550007183828393832EC049830E940105F60133
:10056000E85AFF4F0081118122813381601B710B9A
:10057000820B930BF601E659FF4F0081118120E0B9
:1005800030E04981061717072807390718F442E0B9
:1005900050E004C041110EC043E050E06F2DC60191
:1005A0000F90DF91CF911F910F91FF90DF90CF902F
:1005B0000C9450020F90DF91CF911F910F91FF90FB
:1005C000DF90CF9008952F923F924F925F926F925B
:1005D0007F928F929F92AF92BF92CF92DF92EF92D3
:1005E000FF920F931F93CF93DF931F92CDB7DEB788
:1005F0001C01FC014AE08FEF9FEF278D30A1232BD8
:1006000021F4148E968F858F11A241503696411198
:10061000F4CF712C610126E6C20ED11C510187E690
:10062000A80EB11C4101A0E68A0E911C46E0442EA2
:10063000D6018C91781608F055C0612C8101070D08
:10064000111D070D111D085F1F4FF501E0806E148D
:1006500008F046C0F80140815181062C02C0569531
:1006600047950A94E2F741707E9C70011124E60CD4
:10067000F11CD401ED91FC91EE0DFF1D5080B701EE
:10068000C10149830E944002498197FD02C0682F41
:100690001BC0019619F5442309F180E090E060E069
:1006A00070E0F101E80FF91F248D211111C0469E61
:1006B000F001479EF00D1124E20DF31D548EF68ECD
:1006C000E58E10A2178E41E0C1010E94760206C09D
:1006D0006F5F7F4F06966A30710519F76394B5CF47
:1006E0007394A6CF20E030E080E0F101E20FF31F29
:1006F00091A1911181E02A5F3F4F2C333105A9F779
:100700000F90DF91CF911F910F91FF90EF90DF90AD
:10071000CF90BF90AF909F908F907F906F905F90A1
:100720004F903F902F900895CF92DF92EF92FF92DB
:100730000F931F93CF93DF938C010E940105E80173
:10074000C45ADF4FC880D980EA80FB806C197D09CC
:100750008E099F09F801E859FF4FC080D180E12C34
:10076000F12CC616D706E806F90670F4C8010E94F7
:100770004701C8010E94E302182F0E940105688307
:1007800079838A839B8301C010E0812FDF91CF9111
:100790001F910F91FF90EF90DF90CF9008950F93EE
:1007A0001F93CF93DF93EC018C0104591F4F81E01D
:1007B000F8018083CE010E949403882349F089A127
:1007C000882331F08F8D98A1019711F48C8D03C08F
:1007D000F801108280E0DF91CF911F910F91089571
:1007E000FC0110821482138215820895833081F0F7
:1007F00028F4813099F08230A1F008958630A9F074
:100800008730B9F08430D1F4809180008F7D03C0AF
:10081000809180008F7780938000089584B58F77D2
:1008200002C084B58F7D84BD08958091B0008F771C
:1008300003C08091B0008F7D8093B0000895CF9366
:10084000DF9390E0FC01E458FF4F2491FC01E05756
:10085000FF4F8491882349F190E0880F991FFC0194
:10086000E854FF4FA591B49182559F4FFC01C5916B
:10087000D4919FB7611108C0F8948C912095822380
:100880008C93888182230AC0623051F4F8948C9151
:10089000322F309583238C938881822B888304C0E8
:1008A000F8948C91822B8C939FBFDF91CF91089508
:1008B0000F931F93CF93DF931F92CDB7DEB7282FEF
:1008C00030E0F901E859FF4F8491F901E458FF4FF6
:1008D0001491F901E057FF4F04910023C9F08823D8
:1008E00021F069830E94F6036981E02FF0E0EE0FAA
:1008F000FF1FE255FF4FA591B4919FB7F8948C91DB
:10090000611103C01095812301C0812B8C939FBF7F
:100910000F90DF91CF911F910F910895CF93DF93A7
:10092000282F30E0F901E859FF4F8491F901E4588C
:10093000FF4FD491F901E057FF4FC491CC2391F0C0
:1009400081110E94F603EC2FF0E0EE0FFF1FEC5533
:10095000FF4FA591B4912C912D2381E090E021F4DB
:1009600080E002C080E090E0DF91CF9108951F9277
:100970000F920FB60F9211242F933F938F939F9353
:10098000AF93BF9380919E0190919F01A091A00190
:10099000B091A10130919D0123E0230F2D3720F468
:1009A0000196A11DB11D05C026E8230F0296A11DC9
:1009B000B11D20939D0180939E0190939F01A09370
:1009C000A001B093A1018091A2019091A301A091F7
:1009D000A401B091A5010196A11DB11D8093A201B2
:1009E0009093A301A093A401B093A501BF91AF91EF
:1009F0009F918F913F912F910F900FBE0F901F905D
:100A000018952FB7F89460919E0170919F01809185
:100A1000A0019091A1012FBF0895789484B58260C0
:100A200084BD84B5816084BD85B5826085BD85B592
:100A3000816085BDEEE6F0E0808181608083E1E841
:100A4000F0E0108280818260808380818160808379
:100A5000E0E8F0E0808181608083E1EBF0E080817C
:100A600084608083E0EBF0E0808181608083EAE74E
:100A7000F0E08081846080838081826080838081D7
:100A8000816080838081806880831092C100089596
:100A90000E940D050E948D00C7E2D6E00E949D00D5
:100AA0002097E1F30E942706F9CFFC0124853585C4
:100AB000F901E05CFF4F80819181F901EE5BFF4F0E
:100AC00020813181821B930B8F7399270895FC013C
:100AD00084859585FC01E05CFF4F40815181FC01DC
:100AE000EE5BFF4F208131814217530741F00190A7
:100AF000F081E02DE80FF91F808190E008958FEFDD
:100B00009FEF0895FC0184859585FC01E05CFF4F13
:100B100040815181FC01EE5BFF4F20813181421702
:100B2000530779F0A081B181A80FB91F8C91208162
:100B300031812F5F3F4F2F7333273183208390E024
:100B400008958FEF9FEF0895FC0181A1882329F07C
:100B5000A489B5898C9186FFFBCF11A20895CF930C
:100B6000DF93FC0126853785D901A05CBF4F8D91AD
:100B70009C91119701968F739927E901CE5BDF4F06
:100B80004881598184179507D9F30D90BC91A02D08
:100B9000A20FB31F6C93A685B785A05CBF4F1196BB
:100BA0009C938E93A689B7892C9181E090E0078C65
:100BB00002C0880F991F0A94E2F7282B2C9381E03A
:100BC00081A30488F589E02D80818064808381E0A1
:100BD00090E0DF91CF91089508951F920F920FB684
:100BE0000F9211242F933F934F938F939F93EF93E3
:100BF000FF938091C00082FD1CC04091C60080918F
:100C00004C0290914D0201968F73992720914E02CC
:100C100030914F028217930771F0E0914C02F091EE
:100C20004D02E45FFD4F408390934D0280934C0250
:100C300002C08091C600FF91EF919F918F914F91DB
:100C40003F912F910F900FBE0F901F90189586EA3D
:100C500091E00E945505892B11F00C94EC05089544
:100C60001F920F920FB60F9211242F933F938F93E1
:100C70009F93EF93FF932091080230910902809196
:100C80000A0290910B022817390731F48091C100B4
:100C90008F7D8093C10014C0E0910A02F0910B0295
:100CA000E853FE4F208180910A0290910B02019639
:100CB0008F73992790930B0280930A022093C600AA
:100CC000FF91EF919F918F913F912F910F900FBEC8
:100CD0000F901F901895CF92DF92EF92FF92CF93D3
:100CE000DF93EC016A017B01411581EE5807610534
:100CF0007105F9F0EC89FD8981E090E008A002C05F
:100D0000880F991F0A94E2F7808360E079E08DE311
:100D100090E0A70196010E949707215031094109EF
:100D200051095695479537952795211580E1380744
:100D300098F0EC89FD89108260E874E88EE190E01B
:100D4000A70196010E9497072150310941095109D5
:100D50005695479537952795E889F9893083EA892B
:100D6000FB89208319A2EE89FF89408181E090E010
:100D70009C010C8C02C0220F331F0A94E2F7422B15
:100D80004083EE89FF8940819C010D8C02C0220FB7
:100D9000331F0A94E2F7422B4083EE89FF8940819A
:100DA0009C010E8C02C0220F331F0A94E2F7422BE3
:100DB0004083EE89FF8920810F8C02C0880F991F24
:100DC0000A94E2F7809582238083DF91CF91FF9090
:100DD000EF90DF90CF9008951092A9011092A80192
:100DE00088EE93E0A0E0B0E08093AA019093AB017D
:100DF000A093AC01B093AD0181E291E09093A70183
:100E00008093A6018CE092E09093B3018093B201AD
:100E100088EC91E09093B5018093B40185EC90E06B
:100E20009093B7018093B60184EC90E09093B90160
:100E30008093B80180EC90E09093BB018093BA015D
:100E400081EC90E09093BD018093BC0182EC90E036
:100E50009093BF018093BE0186EC90E09093C10116
:100E60008093C00184E08093C20183E08093C3013A
:100E700087E08093C40185E08093C50181E0809381
:100E8000C6010895CF92DF92EF92FF920F931F93C6
:100E9000CF93DF936C017A01EB01E60EF71E00E0C1
:100EA00010E0CE15DF0561F06991D601ED91FC915E
:100EB0000190F081E02DC6010995080F191FF1CFAF
:100EC000C801DF91CF911F910F91FF90EF90DF90BC
:100ED000CF900895DC01ED91FC910190F081E02D1F
:100EE00009940F931F93CF93DF93EC016DE00E9461
:100EF0006A078C016AE0CE010E946A07800F911F89
:100F0000DF91CF911F910F9108950F931F93CF936E
:100F1000DF93EC010E946A078C01CE010E947107E9
:100F2000800F911FDF91CF911F910F910895A1E242
:100F30001A2EAA1BBB1BFD010DC0AA1FBB1FEE1F53
:100F4000FF1FA217B307E407F50720F0A21BB30B9E
:100F5000E40BF50B661F771F881F991F1A9469F71A
:100F600060957095809590959B01AC01BD01CF0176
:100F70000895EE0FFF1F0590F491E02D0994F89469
:020F8000FFCFA1
:100F82000C0B0A0908070631323334353637383943
:100F920023302A00000000CF00D300D70000000059
:0E0FA20000AF054207550582056705A405004E
:00000001FF
