:100000000C945D000C947A000C947A000C947A00A5
:100010000C947A000C947A000C947A000C941B04D3
:100020000C947A000C947A000C947A000C947A0068
:100030000C947A000C947A000C947A000C947A0058
:100040000C9403010C947A000C947A000C947A00BE
:100050000C947A000C947A000C947A000C947A0038
:100060000C947A000C947A00020000000700020150
:10007000000003040600000000000000000102046C
:10008000081020408001020408102001020408101A
:100090002004040404040404040202020202020311
:1000A000030303030300000000250028002B0000C9
:1000B000000000240027002A000011241FBECFEFFB
:1000C000D8E0DEBFCDBF11E0A0E0B1E0ECE6FDE09E
:1000D00002C005900D92A232B107D9F711E0A2E259
:1000E000B1E001C01D92A034B107E1F70E94D10137
:1000F0000C94B4060C940000AF92BF92CF92DF92A2
:10010000EF92FF920F931F93CF93DF93C0E0D1E064
:1001100000E111E088EEA82E83E0B82E6991799174
:10012000C5010E943C066B01F801619171918F013C
:10013000EE24D7FCE094FE2CA701960188E00E94F3
:10014000DE01C701B6010E94420526E636E646EA10
:100150005FE30E94A6050E940F05882777FD809522
:10016000982F0E94700188E00E940604F1E0C031DF
:10017000DF07A1F6DF91CF911F910F91FF90EF90D4
:10018000DF90CF90BF90AF900895CF92DF92EF9223
:10019000FF92CF93DF93609100017091010188EE8F
:1001A00093E00E943C066B01EE24D7FCE094FE2C09
:1001B000C0E1D1E068817981A701960188E00E94C1
:1001C000DE01888199818C599F4F64EC70E00E9418
:1001D0003C0699838883C701B6010E94420526E642
:1001E00036E646EA5FE30E94A6050E940F058827CF
:1001F00077FD8095982FDF91CF91FF90EF90DF9062
:10020000CF900C9470011F920F920FB60F92112491
:100210002F933F938F939F93AF93BF93809123012D
:1002200090912401A0912501B091260130912201E5
:1002300023E0230F2D3720F40196A11DB11D05C029
:1002400026E8230F0296A11DB11D20932201809361
:10025000230190932401A0932501B093260180915E
:10026000270190912801A0912901B0912A010196BE
:10027000A11DB11D8093270190932801A09329010E
:10028000B0932A01BF91AF919F918F913F912F9190
:100290000F900FBE0F901F9018953FB7F894809164
:1002A000270190912801A0912901B0912A0126B53A
:1002B000A89B05C02F3F19F00196A11DB11D3FBF9E
:1002C0006627782F892F9A2F620F711D811D911D2E
:1002D00042E0660F771F881F991F4A95D1F708954E
:1002E000CF92DF92EF92FF92CF93DF936B017C016D
:1002F0000E944D01EB01C114D104E104F10479F035
:100300000E944D016C1B7D0B683E7340A0F381E0A1
:10031000C81AD108E108F108C851DC4FECCFDF91D1
:10032000CF91FF90EF90DF90CF900895789484B5AF
:10033000826084BD84B5816084BD85B5826085BDE1
:1003400085B5816085BDEEE6F0E0808181608083C7
:10035000E1E8F0E0108280818260808380818160AA
:100360008083E0E8F0E0808181608083E1EBF0E071
:10037000808184608083E0EBF0E080818160808315
:10038000EAE7F0E0808184608083808182608083FE
:100390008081816080838081806880831092C10029
:1003A00008950E9496010E947C00C0E0D0E00E9467
:1003B000C5002097E1F30E940000F9CF3F924F92D1
:1003C0005F926F927F928F929F92AF92BF92CF92E5
:1003D000DF92EF92FF920F931F93CF93DF9300D0A2
:1003E00000D0CDB7DEB78B0129013A0190912001F1
:1003F000981721F09F3F09F0D3C104C0E8E6F0E070
:10040000349081C080932001E8E6F0E0E491EF3F72
:1004100009F4C6C1E13031F1E23009F44BC0E11119
:1004200071C014BC15BC94B5926094BD95B5916033
:1004300095BD282F30E0F901EF56FF4FE491F0E031
:10044000EE0FFF1FEB55FF4F4591549150933B0129
:1004500040933A01F901E358FF4F24912093390169
:10046000312C53C010928000109281009091810035
:1004700098609093810090918100916090938100A9
:10048000282F30E0F901EF56FF4FE491F0E0EE0F36
:10049000FF1FEB55FF4F459154915093340140930A
:1004A0003301F901E358FF4F2491209332013324A3
:1004B00033942BC01092B0001092B1009091B00014
:1004C00092609093B0009091B10091609093B100D0
:1004D000282F30E0F901EF56FF4FE491F0E0EE0FE6
:1004E000FF1FEB55FF4F4591549150932D014093C1
:1004F0002C01F901E358FF4F249120932B0152E086
:10050000352E03C03E2E37FC4BC161E00E94A00493
:100510004801A12CB12C832D8D7F09F0C0C060E073
:1005200072E18AE790E0A50194010E947206298396
:100530003A834B835C8369017A0181E0C81AD10850
:10054000E108F1089FEFC916D104E104F10409F0B4
:1005500008F49AC060E472E48FE090E0A501940191
:100560000E94720669017A01E1E0CE1AD108E10821
:10057000F108F2E03F1219C08FEFC816D104E10470
:10058000F10409F008F487C060E970ED83E090E0C1
:10059000A50194010E94720669017A0191E0C91ACD
:1005A000D108E108F10883E001C082E0EFEFCE1648
:1005B000D104E104F10409F008F467C068E478EEBE
:1005C00081E090E0A50194010E94720669017A0120
:1005D000F1E0CF1AD108E108F1083320E1F082E020
:1005E00038121BC09FEFC916D104E104F10409F0D1
:1005F00008F4D4C064E274EF80E090E0A5019401B7
:100600000E94720669017A01E1E0CE1AD108E10880
:10061000F10885E003C083E001C084E0FFEFCF165E
:10062000D104E104F10489F180F162E17AE780E02C
:1006300090E0A50194010E94720669017A0181E0AF
:10064000C81AD108E108F108311002C084E001C0E5
:1006500086E09FEFC916D104E104F104B1F0A8F0DF
:10066000C980DA80EB80FC809AE0F594E794D79417
:10067000C7949A95D1F7E1E0CE1AD108E108F108C4
:10068000332031F087E008C081E0332011F004C04E
:1006900085E085BD34C082E08093B10030C060E069
:1006A00072E18AE790E0A50194010E947206690157
:1006B0007A01F1E0CF1AD108E108F108C114D104A0
:1006C00081E0E806F10488F068E478EE81E090E0EB
:1006D000A50194010E94720669017A0191E0C91A8C
:1006E000D108E108F10893E001C091E0E1E03E1299
:1006F00006C080918100887F892B809381004114FE
:1007000051046104710471F0D801AA0FBB1FA30149
:1007100092010E94310628EE33E040E050E00E9452
:10072000500603C02FEF3FEFA901F1E03F16A1F003
:1007300082E0381619F1311033C0C7BC20933C0158
:1007400030933D0140933E0150933F0180916E00F4
:10075000826080936E0024C0D0928900C09288008D
:10076000209335013093360140933701509338017F
:1007700080916F00826080936F0012C0C092B300BE
:1007800020932E0130932F0140933001509331017B
:100790008091700082608093700002C084E07CCF02
:1007A0000F900F900F900F90DF91CF911F910F91AD
:1007B000FF90EF90DF90CF90BF90AF909F908F9081
:1007C0007F906F905F904F903F900895813039F007
:1007D00018F0823051F0089510926E0008958091C3
:1007E0006F008D7F80936F000895809170008D7FE2
:1007F0008093700081E08093B0008091B100887F89
:1008000084608093B1001092B3000895CF93C82FF5
:10081000809120018C1307C0E8E6F0E084919FEFFF
:100820009093200101C08FEF0E94E60360E08C2FBF
:10083000CF910C94D9041F920F920FB60F921124EE
:100840002F933F934F935F936F937F938F939F93D8
:10085000AF93BF93EF93FF9380912E0190912F015F
:10086000A0913001B0913101892B8A2B8B2B51F152
:1008700090912B01E0912C01F0912D01808189272D
:10088000808380912E0190912F01A0913001B09131
:100890003101181619061A061B06C4F480912E01A0
:1008A00090912F01A0913001B09131010197A109E0
:1008B000B10980932E0190932F01A0933001B09342
:1008C000310104C0809120010E940604FF91EF9144
:1008D000BF91AF919F918F917F916F915F914F9158
:1008E0003F912F910F900FBE0F901F90189583305E
:1008F00081F028F4813099F08230A1F0089586309B
:10090000A9F08730B9F08430D1F4809180008F7DD8
:1009100003C0809180008F7780938000089584B514
:100920008F7702C084B58F7D84BD08958091B0001B
:100930008F7703C08091B0008F7D8093B0000895C1
:10094000CF93DF9390E0FC01E358FF4F2491FC012B
:10095000EF56FF4F8491882349F190E0880F991F4B
:10096000FC01E155FF4FA591B4918B559F4FFC01C0
:10097000C591D4919FB7611108C0F8948C912095CE
:1009800082238C93888182230AC0623051F4F894C8
:100990008C91322F309583238C938881822B88838E
:1009A00004C0F8948C91822B8C939FBFDF91CF91E0
:1009B00008950F931F93CF93DF931F92CDB7DEB7A8
:1009C000282F30E0F901E759FF4F8491F901E358EE
:1009D000FF4F1491F901EF56FF4F04910023C9F026
:1009E000882321F069830E9477046981E02FF0E079
:1009F000EE0FFF1FEB55FF4FA591B4919FB7F894F1
:100A00008C91611103C01095812301C0812B8C93BF
:100A10009FBF0F90DF91CF911F910F91089504D048
:100A20006894B1118DC0089570D088F09F5790F0F0
:100A3000B92F9927B751A0F0D1F0660F771F881F03
:100A4000991F1AF0BA95C9F712C0B13081F077D06A
:100A5000B1E0089574C0672F782F8827B85F39F008
:100A6000B93FCCF3869577956795B395D9F73EF462
:100A700090958095709561957F4F8F4F9F4F08950A
:100A8000E89409C097FB3EF4909580957095619528
:100A90007F4F8F4F9F4F9923A9F0F92F96E9BB27DE
:100AA0009395F695879577956795B795F111F8CF5A
:100AB000FAF4BB0F11F460FF1BC06F5F7F4F8F4FC5
:100AC0009F4F16C0882311F096E911C0772321F0BB
:100AD0009EE8872F762F05C0662371F096E8862F53
:100AE00070E060E02AF09A95660F771F881FDAF7AA
:100AF000880F9695879597F9089557FD9058440F5C
:100B0000551F59F05F3F71F04795880F97FB991F6C
:100B100061F09F3F79F08795089512161306140629
:100B2000551FF2CF4695F1DF08C0161617061806B6
:100B3000991FF1CF86957105610508940895E89491
:100B4000BB2766277727CB0197F908950BD078C08C
:100B500069D028F06ED018F0952309F05AC05FC014
:100B60001124EECFCADFA0F3959FD1F3950F50E08B
:100B7000551F629FF001729FBB27F00DB11D639F4F
:100B8000AA27F00DB11DAA1F649F6627B00DA11DF5
:100B9000661F829F2227B00DA11D621F739FB00D9B
:100BA000A11D621F839FA00D611D221F749F33270B
:100BB000A00D611D231F849F600D211D822F762FA4
:100BC0006A2F11249F5750408AF0E1F088234AF0A1
:100BD000EE0FFF1FBB1F661F771F881F91505040ED
:100BE000A9F79E3F510570F014C0AACF5F3FECF308
:100BF000983EDCF3869577956795B795F795E795D9
:100C00009F5FC1F7FE2B880F911D9695879597F9E9
:100C1000089597F99F6780E870E060E008959FEF7E
:100C200080EC089500240A94161617061806090683
:100C3000089500240A941216130614060506089552
:100C4000092E0394000C11F4882352F0BB0F40F4DA
:100C5000BF2B11F460FF04C06F5F7F4F8F4F9F4F1A
:100C600008950E949106A59F900DB49F900DA49F9A
:100C7000800D911D1124089597FB072E16F4009402
:100C800007D077FD09D00E94A00607FC05D03EF4EE
:100C9000909581959F4F0895709561957F4F089528
:100CA000A1E21A2EAA1BBB1BFD010DC0AA1FBB1F70
:100CB000EE1FFF1FA217B307E407F50720F0A21BE2
:100CC000B30BE40BF50B661F771F881F991F1A944F
:100CD00069F760957095809590959B01AC01BD0179
:100CE000CF010895052E97FB1EF400940E948906FB
:100CF00057FD07D00E94500607FC03D04EF40C9419
:100D0000890650954095309521953F4F4F4F5F4F45
:100D1000089590958095709561957F4F8F4F9F4F67
:100D20000895A29FB001B39FC001A39F700D811DC4
:100D30001124911DB29F700D811D1124911D0895E4
:100D4000AA1BBB1B51E107C0AA1FBB1FA617B707F1
:100D500010F0A61BB70B881F991F5A95A9F780950D
:0C0D60009095BC01CD010895F894FFCFE0
:100D6C00040008000800040004000400040004004F
:100D7C000601C400C400DC00C4000000F70006013A
:020D8C00FF0066
:00000001FF
